:100000000C9464000C948C000C948C000C948C0068
:100010000C948C000C948C000C948C000C948C0030
:100020000C948C000C948C000C948C000C94A00804
:100030000C948C000C948C000C948C000C948C0010
:100040000C94D00C0C948C000C945F090C94AD09AA
:100050000C948C000C948C000C948C000C948C00F0
:100060000C948C000C948C000000000024002700ED
:100070002A0000000000250028002B0000000000DE
:1000800023002600290004040404040404040202DA
:100090000202020203030303030301020408102007
:1000A0004080010204081020010204081020000012
:1000B0000007000201000003040600000000000029
:1000C00000009E04190B970411241FBECFEFD8E047
:1000D000DEBFCDBF12E0A0E0B1E0E0E3F0E202C09D
:1000E00005900D92A63AB107D9F714E0A6EAB2E05E
:1000F00001C01D92AA31B107E1F710E0C6ECD0E0D3
:1001000004C02297FE010E94D00FC23CD107C9F75C
:100110000E946F0B0C940B100C940000A0E0B0E058
:10012000E4E9F0E00C94DC0FEC01A880B980CA800F
:10013000DB80A114B104C104D10441F484E2A82EEF
:1001400089EDB82E8BE5C82E87E0D82EC601B50103
:100150002DE133EF41E050E00E949F0F27EA31E4A8
:1001600040E050E00E943F0F7B018C01C601B501C9
:100170002DE133EF41E050E00E949F0FCA01B90129
:100180002CEE34EF4FEF5FEF0E943F0F6E0D7F1D9F
:10019000801F911F97FF04C06150704080409048BD
:1001A000688379838A839B839B01AC015F77B90164
:1001B000CA01CDB7DEB7EAE00C94F80F0E948E00BA
:1001C000089584E492E00E948E00089560934402B2
:1001D0007093450280934602909347020895FC0174
:1001E00088E680830895089508951F93CF93DF9341
:1001F000EC01898160E00E94830E81EE8EBD0DB41A
:1002000007FEFDCF1EB5898161E00E94830E812F1C
:10021000DF91CF911F9108951F93CF93DF93EC014E
:10022000898160E00E94830E82EE8EBD0DB407FED0
:10023000FDCF1EB5898161E00E94830E812FDF9181
:10024000CF911F910895EF92FF920F931F93CF9339
:10025000DF93EC01F62EE72E0A81142F041708F421
:10026000102F898160E00E94830E81E68EBD0DB45F
:1002700007FEFDCF8F2D9E2D9C01F901FEB4912F1D
:100280002FEF07C02EBD0DB407FEFDCF8EB58193B5
:1002900091509923B9F7402F411B8FEF06C08EBDB7
:1002A0000DB407FEFDCF9EB541504423C1F78981AF
:1002B00061E00E94830E8F2DDF91CF911F910F91EE
:1002C000FF90EF9008950F931F93CF93DF93EC016E
:1002D000162F042F898160E00E94830E1F71106227
:1002E0001EBD0DB407FEFDCF1EB50EBD0DB407FE3D
:1002F000FDCF8EB5898161E00E94830E812FDF9151
:10030000CF911F910F910895EF92FF920F931F933A
:10031000CF93DF937C01162FEA01022FFC0181812C
:1003200060E00E94830E1F7110621EBD0DB407FEB7
:10033000FDCF1EB508C088818EBD0DB407FEFDCF70
:1003400021968EB501500023B1F7F701818161E05C
:100350000E94830E812FDF91CF911F910F91FF900B
:10036000EF9008951F93CF93DF93EC01162F8981AF
:1003700060E00E94830E1F711EBD0DB407FEFDCF0D
:100380008EB58FEF8EBD0DB407FEFDCF1EB58981F2
:1003900061E00E94830E812FDF91CF911F9108951C
:1003A000FF920F931F938C01F62EFC01808160E079
:1003B0000E94830EC80160E04CE00E94630184E665
:1003C00090E00E94720DC80161E040E00E9463016C
:1003D000C80162E041E00E946301C80163E043E0BC
:1003E0000E946301C80164E04FEF0E946301C801ED
:1003F00065E04F2D0E946301C80166E045E00E9460
:100400006301C80167E040E70E946301C80161E140
:1004100040E10E946301C80167E140E00E9463017E
:10042000C8016AE040E051E025E00E94840162E3F7
:1004300070E080E090E00E944C0DC8010E94F50041
:10044000C8010E940C0184E690E00E94720DC80170
:1004500060E04EE00E94630184E690E00E94720D2D
:10046000C80160E04FE00E94630184E690E00E94D2
:10047000720DF801808161E00E94830E84E690E0B5
:100480000E94720D1F910F91FF900895FF920F939C
:100490001F938C01F62E0E94AD07F801F28280E0D6
:1004A0000E94970784E00E949C071F910F91FF9084
:1004B00008950F931F938C01862FF8016083418369
:1004C00061E00E94170EF801818161E00E94170E21
:1004D000F801808160E00E94830EF801818161E073
:1004E0000E94830E1F910F910895FC0182819381D8
:1004F00008954F925F926F927F928F929F92AF92E8
:10050000BF92CF92DF92EF92FF920F931F93CF9300
:10051000DF93EC012B01FB011382128215821482FE
:10052000118210820E94260D688779878A879B87AF
:10053000BE01605F7F4F89EB92E00E948C05182F0F
:100540000E94260D6C877D878E879F87112381F0FF
:10055000133009F00EC1898D882309F00AC181E0AA
:10056000898F8FEE93E066E071E00E94BD0C01C1BF
:100570000E94260D688779878A879B8788898A8F5A
:100580001B8E00D000D06989772767FD7095872F73
:10059000972FF0ED6F2EF7E07F2E812C912CEDB789
:1005A000FEB761827282838294822EE83FEF4FEF22
:1005B0005FEFE2E7EE2EF12C012D112DB8EEAB2E00
:1005C000B3E0BB2EC12CD12C0E94B60E7D8F6C8F58
:1005D0006A89772767FD7095872F972FEDB7FEB74C
:1005E00061827282838294822EE83FEF4FEF5FEF49
:1005F0000E94B60E7F8F6E8F6B89772767FD70958F
:10060000872F972FEDB7FEB7618272828382948223
:100610002EE83FEF4FEF5FEF0E94B60E79A368A37D
:100620000F900F900F900F908F89882319F08FEF04
:100630009FEF02C081E090E09BA38AA38C89992759
:1006400087FD90959DA38CA38D89992787FD909513
:100650009FA38EA38E89992787FD909599A788A738
:10066000888D8AA71BA68FEE93E067E171E00E9458
:10067000BA0C6A8D7B8D8FEE93E04AE050E00E94C9
:10068000880C8FEE93E06BE271E00E94BA0C6C8DE7
:100690007D8D8FEE93E04AE050E00E94880C8FEE53
:1006A00093E063E371E00E94BA0C6E8D7F8D8FEE54
:1006B00093E04AE050E00E94880C8FEE93E06DE3F7
:1006C00071E00E94BA0C68A179A18FEE93E04AE034
:1006D00050E00E94880C8FEE93E066E471E00E9487
:1006E000BA0C6AA17BA18FEE93E04AE050E00E9431
:1006F000880C8FEE93E06FE471E00E94BA0C6CA15D
:100700007DA18FEE93E04AE050E00E94880C8FEECE
:1007100093E06CE571E00E94BA0C6EA17FA18FEEB0
:1007200093E04AE050E00E94880C8FEE93E06BE685
:1007300071E00E94BA0C68A579A58FEE93E04AE0BB
:1007400050E00E94880C8FEE93E069E771E00E9410
:10075000BA0C6AA57BA58FEE93E04AE050E00E94B8
:100760009B0C8C859D85AE85BF8588879987AA87D8
:10077000BB872AA13BA18A8D9B8DA901489F90012F
:10078000499F300D589F300D1124F2013783268385
:100790008C8D9D8D9187808733832283358324833D
:1007A000608171816115710539F08E819F816817B3
:1007B000790711F480E009C07F836E8362E070E006
:1007C00080E090E00E944C0D81E0DF91CF911F917D
:1007D0000F91FF90EF90DF90CF90BF90AF909F90E0
:1007E0008F907F906F905F904F9008950F931F931D
:1007F0008C01862F22E532E0F80131832083648367
:1008000075835783468361E00E94170EF801868145
:1008100061E00E94170EF801138212821F910F915E
:100820000895CF93DF93EC016115710549F46A8156
:100830007B818C810E94B70D8E8160E070E00EC0DC
:100840006130710569F48C8160E070E00E94B70D41
:100850006A817B81709561957F4F8E810E94B70D73
:10086000DF91CF910895FC017383628377FD03C00C
:1008700060E070E002C061E070E00E941104089541
:100880008130910509F045C06F5F7F4F09F04EC080
:1008900086EA92E00E94EF0089EB92E00E946C05EC
:1008A00087EE92E00E94F3008AEE92E00E94C40775
:1008B0001092EE021092ED021092F0021092EF02EE
:1008C0001092F2021092F1021092F4021092F302CE
:1008D0008CE492E09093F8028093F70285E293E033
:1008E00063E070E045E050E00E94F6038FE293E0A1
:1008F00066E070E049E050E00E94F6030E94180DA7
:100900006093210370932203809323039093240325
:100910000895892B59F46F5F7F4F41F487EE92E081
:100920000E94F40089EB92E00E948B05089580E01C
:1009300090E06FEF7FEF0E944004089581E090E027
:100940006FEF7FEF0E944004089587EF92E06DEE15
:1009500072E00E9479028823B1F08091ED029091BB
:10096000EE02892B81F46091EF027091F00285E232
:1009700093E00E9433046091F1027091F2028FE2E1
:1009800093E00E9433040E94180D209121033091BE
:1009900022034091230350912403621B730B840BA9
:1009A000950B6031710581059105B8F06091F502F4
:1009B0007091F6026115710511F46CED75E08AEE27
:1009C00092E00E94DE070E94180D6093210370934D
:1009D000220380932303909324030895EF92FF92C0
:1009E0000F931F930FEE13E0C80140E855E260E05B
:1009F00070E00E94E8098DE061E00E94170E8AE035
:100A000061E00E94170EA7EEEA2EA2E0FA2EC701BF
:100A100068E04AE00E94590289EB92E0B7010E9427
:100A20007807C80161E871E00E94BD0CC8016DE85B
:100A300071E00E94BD0CC80165EA71E00E94BD0C26
:100A4000C80168EB71E00E94BD0CC80164ED71E063
:100A50000E94BD0CC8016BE072E00E94BD0CC80191
:100A600061E372E00E94BD0C8AEE92E064E070E007
:100A70000E9499081F910F91FF90EF900895FC013B
:100A800023818281280F8481280F30E0C9018E7173
:100A900090709595879595958795682FD901A37046
:100AA000B07084E0AA0FBB1F8A95E1F7AA5ABD4F28
:100AB00040E050E02C91260F822F90E08F709070D4
:100AC000892B09F4235025834F5F5F4F1196319690
:100AD0004031510579F70895FC0112821382148286
:100AE0008FE097E291A780A717A2A9E3B3E090E077
:100AF000292F220F220F220F822F885E83FF83501F
:100B00008D939F5F9830A1F716A212A613A614A684
:100B100015A6158A089508954F925F926F927F925D
:100B20009F92AF92BF92CF92DF92EF92FF920F937C
:100B30001F93CF93DF93EC018B018EA1813009F4D9
:100B40006DC1813008F4F6C0823031F0833009F491
:100B5000B9C125E0F22EBBC10E94180D5B016C01EA
:100B60008881998167E00E94B20186FD03C0FF245D
:100B7000F3948AC08881998167E040E40E94630110
:100B800096E1692E712C6C0E7D1EFF24F394EE24E9
:100B900099248BE0482E512C6DC088819981B30136
:100BA00040E10E942301FE0190E020E08689280FA9
:100BB0009F5F31969F30D1F78DA1281709F05AC059
:100BC0009A818D8D981709F055C09B818E8D98174D
:100BD00009F050C09C818F8D981709F04BC0EE2012
:100BE00019F09216A1F443C08D898F5F8D8B8031EF
:100BF00008F01D8A8D89FE01E80FF11D8881998119
:100C000065E045810E94630159A648A61FA22DA157
:100C1000AAA6BBA6CCA6DDA69CA1903C41F18E89DC
:100C2000F80180838F8987FD02C0819501C08058BB
:100C3000F8018183888D87FD02C0819501C08058AD
:100C4000F8018283898D87FD02C0819501C080589B
:100C5000F80183838A8D805484838B8D80548583AF
:100C60008C8D8054868397838DA18087FF24EE240A
:100C7000E394922E8881998167E10E94B20180FFFE
:100C80008CCFEE2009F051C085018AA59BA5950166
:100C9000281B390B88A599A58217930708F045C032
:100CA0008FA18F5F8FA30E94180D6AA77BA78CA7C7
:100CB0009DA72FA1213091F4061B170BB3E01695C9
:100CC0000795BA95E1F7602F6F5F862F90E0A3E05C
:100CD000880F991FAA95E1F7069614C0223031F4C7
:100CE00088E790E099A788A76AE00EC061E070E00D
:100CF00080E090E02FE030E040E050E00E94210FE3
:100D00008AEF90E099A788A78D89860F8D8B803117
:100D100010F08F708D8B8D89FE01E80FF11D888199
:100D2000998165E045810E9463018FA1882309F0C4
:100D3000C9C0CDC00E94180D7B018C0188819981AA
:100D400067E00E94B20186FD25C08AA59BA5ACA5DF
:100D5000BDA5A8019701281B390B4A0B5B0B213855
:100D600031054105510508F4B0C08D898F5F8D8B29
:100D7000883008F01D8AED89F0E0E75CFC4F88813F
:100D8000998165E040810E946301EAA6FBA60CA759
:100D90001DA79BC08881998167E040E40E946301A0
:100DA000F6E1CF2ED12CCC0EDD1E30C0888199818A
:100DB000B60140E10E942301FE0190E020E0868917
:100DC000280F9F5F31969F30D1F78DA12817F1F43E
:100DD0008CA1803CD9F48D8D8A838E8D8B838F8DF1
:100DE0008C83CE010E943F051D8A8881998165E030
:100DF0004D810E946301EAA6FBA60CA71DA781E016
:100E00008EA3888199810E940C0159C088819981A3
:100E100067E10E94B20180FFC9CF57C088819981E4
:100E200067E00E94B20186FF4AC08881998167E02D
:100E300040E40E9463018E010A5E1F4FFF24E2E03E
:100E4000EE2E24C088819981B80140E10E942301DF
:100E5000FE0190E020E08689280F9F5F31969F3049
:100E6000D1F78DA1281791F48CA1803C79F09A815B
:100E70008D8D981759F49B818E8D981739F49C812C
:100E80008F8D981719F4EEA2FF24F394888199812D
:100E900067E10E94B20180FFD5CFFF2081F08D89EC
:100EA0008F5F8D8B803108F01D8A8D89FE01E80FE0
:100EB000F11D8881998165E045810E94630173E09D
:100EC000F72E05C064E0F62E02C052E0F52E8F2DFD
:100ED000DF91CF911F910F91FF90EF90DF90CF9016
:100EE000BF90AF909F907F906F905F904F900895CC
:100EF0000F931F938C01CB01F8017183608360E134
:100F00000E94460284E690E00E94720DF801808102
:100F10009181609139030E94D0010E94180DF8015F
:100F200062A773A784A795A71F910F9108959CB5F9
:100F3000937F982B9CBD08952CB5382F33702C7F50
:100F4000322B3CBD2DB590E095958795959587956D
:100F500081702E7F822B8DBD08958AE061E00E9412
:100F6000830E8AE061E00E94170E8CB580618CBD13
:100F70008CB580648CBD8DE061E00E94170E8BE023
:100F800061E00E94170E0895FC01809141038C30AE
:100F900090F480838F5F80934103815090E0FC0147
:100FA000EE0FFF1FE80FF91FEE5BFC4F88EB9BE095
:100FB0009283818308958FEF80830895FC012081BF
:100FC0002C30B8F58181992787FD909548E850E04D
:100FD000481B590B440F551F440F551F64177507C5
:100FE00084F08281992787FD909548E552E0481B5F
:100FF000590B440F551F440F551F641775070CF408
:10100000AB0142505040CA01AA2797FDA095BA2FC4
:10101000880F991FAA1FBB1F4FB7F89430E0F90142
:10102000EE0FFF1FE20FF31FEE5BFC4F92838183F5
:101030004FBF0895CF92DF92EF92FF921F93CF930D
:10104000DF93EC01162F7A01690188818C3008F05A
:1010500064C0862F61E00E94170E888190E0FC0139
:10106000EE0FFF1FE80FF91FEE5BFC4F1F7380812F
:10107000807C812B808380E292E08E199F0964E05E
:1010800070E00E946A0F698380E699E08C199D09DF
:1010900064E070E00E946A0F6A83A8818A2F6CE086
:1010A0000E945E0F682F70E0AB01440F551F460F82
:1010B000571F440F551F440F551F20E030E0C90152
:1010C000840F951FFC01EE0FFF1FE80FF91FEE5B69
:1010D000FC4F808186FD15C02F5F3F4F2C303105BE
:1010E00071F724C01092800082E0809381001092FA
:1010F000850010928400B19A80916F008260809385
:101100006F008A2F90E0FC01EE0FFF1FE80FF91F20
:10111000EE5BFC4F8081806480838881DF91CF917A
:101120001F91FF90EF90DF90CF900895672BD1F241
:10113000E8CF40E252E020E639E00E941A08089524
:101140001F920F920FB60F9211242F933F934F933C
:101150005F936F937F938F939F93AF93BF93EF931F
:10116000FF938091660387FF05C01092850010925F
:1011700084002BC020916603332727FD3095809192
:10118000410390E02817390704F5809166039927F9
:1011900087FD9095FC01EE0FFF1FE80FF91FEE5B36
:1011A000FC4F808186FF11C080916603992787FDDF
:1011B0009095FC01EE0FFF1FE80FF91FEE5BFC4F4F
:1011C00080818F7360E00E94830E809166038F5F41
:1011D0008093660320916603332727FD3095809125
:1011E000410390E0281739070CF04EC08091660348
:1011F0008C300CF049C020918400309185008091A2
:101200006603992787FD9095FC01EE0FFF1FE80FFD
:10121000F91FEE5BFC4F81819281280F391F3093BB
:1012200089002093880080916603992787FD909517
:10123000FC01EE0FFF1FE80FF91FEE5BFC4F8081F2
:1012400086FF2BC080916603992787FD9095FC014E
:10125000EE0FFF1FE80FF91FEE5BFC4F80818F73CD
:1012600061E00E94830E19C080E49CE905C0809172
:101270008400909185000496909389008093880063
:101280008FEF8093660309C0809184009091850060
:10129000049680549C4940F3EACFFF91EF91BF91AF
:1012A000AF919F918F917F916F915F914F913F91FE
:1012B0002F910F900FBE0F901F90189508951F92B9
:1012C0000F920FB60F9211242F933F934F938F934A
:1012D0009F93EF93FF938091C00082FD1DC04091CA
:1012E000C6002091A7033091A8032F5F3F4F2F73B3
:1012F00030708091A9039091AA032817390771F0E3
:10130000E091A703F091A803E959FC4F4083309383
:10131000A8032093A70302C08091C600FF91EF911C
:101320009F918F914F913F912F910F900FBE0F90F2
:101330001F901895E091FB03F091FC03E05CFF4FD8
:101340008191919120813181821B930B8F739070D9
:10135000892B11F00E945E0908951F920F920FB61B
:101360000F9211242F933F938F939F93EF93FF93AB
:101370002091EB033091EC038091ED039091EE030B
:101380002817390731F48091C1008F7D8093C10007
:1013900014C0E091ED03F091EE03E555FC4F208180
:1013A0008091ED039091EE0301968F73907090936E
:1013B000EE038093ED032093C600FF91EF919F9180
:1013C0008F913F912F910F900FBE0F901F90189506
:1013D000AF92BF92DF92EF92FF920F931F93CF9342
:1013E000DF93EC017A018B01DD24403081EE580758
:1013F00080E0680780E0780711F0DD24D39491E065
:10140000A92EB12CEC89FD89DD2069F0C50108A069
:1014100002C0880F991F0A94E2F7808360E079E0A8
:101420008DE390E005C0108260E874E88EE190E002
:10143000A80197010E947D0F21503040404050404C
:10144000569547953795279580E12030380720F04D
:10145000DD2011F0DD24D6CFE889F9893083EA89CF
:10146000FB89208319A2EE89FF89408121E030E0C9
:10147000C9010C8C02C0880F991F0A94E2F7482B0F
:101480004083EE89FF894081C9010D8C02C0880F1D
:10149000991F0A94E2F7482B4083EE89FF89408127
:1014A000C9010E8C02C0880F991F0A94E2F7482BDD
:1014B0004083EE89FF8980810F8C02C0220F331F89
:1014C0000A94E2F7209528232083DF91CF911F9182
:1014D0000F91FF90EF90DF90BF90AF900895DC01E7
:1014E0001C96ED91FC911D97E05CFF4F219131918D
:1014F00080819181281B390B2F733070C9010895A9
:10150000DC011C96ED91FC911D97E05CFF4F208162
:101510003181E054F040DF01AE5BBF4F8D919C9173
:1015200011972817390719F42FEF3FEF07C08D9156
:101530009C91E80FF91F8081282F30E0C9010895A0
:10154000DC011C96ED91FC911D97E05CFF4F208122
:101550003181E054F040DF01AE5BBF4F8D919C9133
:1015600011972817390719F42FEF3FEF10C08D910D
:101570009C911197E80FF91F20818D919C911197F3
:1015800001968F73907011969C938E9330E0C901F1
:101590000895DC0191968C919197882339F05496A7
:1015A000ED91FC915597808186FFF9CF91961C9221
:1015B0000895CF93DF93EC01EE85FF85E05CFF4F4C
:1015C00020813181E054F0402F5F3F4F2F73307006
:1015D000DF01AE5BBF4F8D919C91119728173907A2
:1015E000D1F3E05CFF4F80819181E054F040E80F3F
:1015F000F91F6083EE85FF85E05CFF4F3183208318
:10160000EE89FF89208181E090E00F8C02C0880F75
:10161000991F0A94E2F7282B208381E089A3EC89A3
:10162000FD8980818064808381E090E0DF91CF91AB
:1016300008951092F2031092F10388EE93E0A0E077
:10164000B0E08093F3039093F403A093F503B09379
:10165000F6038AE992E09093F0038093EF0387E624
:1016600093E09093FC038093FB038BEA93E09093C9
:10167000FE038093FD0385EC90E09093000480933B
:10168000FF0384EC90E0909302048093010480ECCB
:1016900090E0909304048093030481EC90E0909395
:1016A00006048093050482EC90E0909308048093F4
:1016B000070486EC90E090930A048093090484E088
:1016C00080930B0483E080930C0487E080930D04E7
:1016D00085E080930E0481E080930F040895CF93FA
:1016E000DF930E947C0D0E94EE04CAE9D9E00E94BB
:1016F000A5042097E1F30E949A09F9CFCF92DF92D7
:10170000EF92FF920F931F93CF93DF937C016B01B6
:101710008A01C0E0D0E00FC0D6016D916D01D70104
:10172000ED91FC910190F081E02DC7010995C80F62
:10173000D91F015010400115110571F7CE01DF913D
:10174000CF911F910F91FF90EF90DF90CF90089570
:10175000EF92FF920F931F938C01DC01ED91FC91AE
:101760000190F081E02D6DE009957C01D801ED91AB
:10177000FC910190F081E02DC8016AE009959C017F
:101780002E0D3F1DC9011F910F91FF90EF900895FD
:10179000CF93DF93EC016115710519F420E030E07F
:1017A0000FC0DB010D900020E9F71197A61BB70BC6
:1017B000E881F9810280F381E02DAD0109959C015A
:1017C000C901DF91CF9108954F925F927F928F92DE
:1017D0009F92AF92BF92CF92DF92EF92FF920F93C0
:1017E0001F93DF93CF93CDB7DEB7A1970FB6F894D1
:1017F000DEBF0FBECDBF2C01742ECB01223008F40A
:101800002AE019A231E2C32ED12CCC0EDD1E822E8D
:101810009924AA24BB24672D752FA50194010E9449
:101820007D0F79018A01C801B701A50194010E94C9
:101830003F0F472D461B0894C108D1084A3014F4C5
:10184000405D01C0495CF6014083E114F1040105EB
:10185000110521F07E2C5F2DC801DDCFC201B6013C
:101860000E94C80BA1960FB6F894DEBF0FBECDBF85
:10187000CF91DF911F910F91FF90EF90DF90CF906C
:10188000BF90AF909F908F907F905F904F90089502
:10189000CF92DF92EF92FF920F931F93CF93DF933C
:1018A000EC016A017B012115310541F4E881F981E0
:1018B0000190F081E02D642F09951FC02A30310579
:1018C000D1F477FF17C0E881F9810190F081E02D14
:1018D0006DE209958C0144275527BA014C195D0921
:1018E0006E097F09CE012AE00E94E40B9801280FBF
:1018F000391F04C02AE00E94E40B9C01C901DF915A
:10190000CF911F910F91FF90EF90DF90CF900895AE
:10191000EF92FF920F931F937B019A010027F7FC30
:101920000095102FB801A7010E94480C1F910F913C
:10193000FF90EF900895CF92DF92EF92FF920F9376
:101940001F936C017B019A010027F7FC0095102F73
:10195000B801A7010E94480C8C01C6010E94A80B87
:10196000080F191FC8011F910F91FF90EF90DF9092
:10197000CF9008950E94C80B0895EF92FF920F93A5
:101980001F937C010E94C80B8C01C7010E94A80B09
:10199000080F191FC8011F910F91FF90EF90089534
:1019A0001F920F920FB60F9211242F933F938F9394
:1019B0009F93AF93BF938091150490911604A091CB
:1019C0001704B0911804309119040196A11DB11D9E
:1019D000232F2D5F2D3720F02D570196A11DB11D0E
:1019E000209319048093150490931604A093170470
:1019F000B09318048091110490911204A0911304E3
:101A0000B09114040196A11DB11D8093110490930F
:101A10001204A0931304B0931404BF91AF919F914B
:101A20008F913F912F910F900FBE0F901F9018959F
:101A30008FB7F89420911504309116044091170443
:101A4000509118048FBFB901CA0108959FB7F89447
:101A50002091110430911204409113045091140408
:101A600086B5A89B06C08F3F21F02F5F3F4F4F4F99
:101A70005F4F9FBF542F432F322F2227280F311D36
:101A8000411D511D82E0220F331F441F551F8A95AF
:101A9000D1F7B901CA010895EF92FF920F931F93F6
:101AA000CF93DF937B018C010E94260DEB010EC0CA
:101AB0000E94260D6C1B7D0B685E7340C8F3089472
:101AC000E108F10801091109C851DC4FE114F104E2
:101AD0000105110569F7DF91CF911F910F91FF90DB
:101AE000EF900895019739F0880F991F880F991F7B
:101AF00002970197F1F70895789484B5826084BDC8
:101B000084B5816084BD85B5826085BD85B5816001
:101B100085BDEEE6F0E0808181608083E1E8F0E061
:101B20001082808182608083808181608083E0E890
:101B3000F0E0808181608083E1EBF0E0808184606F
:101B40008083E0EBF0E0808181608083EAE7F0E071
:101B500080818460808380818260808380818160D5
:101B600080838081806880831092C10008951F93D4
:101B7000CF93DF93182FEB0161E00E94170E20979F
:101B800009F44AC0CF3FD10509F449C0E12FF0E084
:101B9000E255FF4F84918330C1F0843028F48130C6
:101BA00051F08230B1F50CC0863019F1873049F11F
:101BB000843079F514C084B5806884BDC7BD33C056
:101BC00084B5806284BDC8BD2EC0809180008068CD
:101BD00080938000D0938900C093880024C08091B6
:101BE0008000806280938000D0938B00C0938A0035
:101BF0001AC08091B00080688093B000C093B30099
:101C000012C08091B00080628093B000C093B40095
:101C10000AC0C038D1051CF4812F60E002C0812FBA
:101C200061E00E94830EDF91CF911F910895CF93C1
:101C3000DF93482F50E0CA0186569F4FFC01349134
:101C40004A575F4FFA018491882369F190E0880F29
:101C5000991FFC01E859FF4FA591B491FC01EE5882
:101C6000FF4FC591D491662351F42FB7F8948C910E
:101C7000932F909589238C93888189230BC06230A0
:101C800061F42FB7F8948C91932F909589238C93BE
:101C90008881832B88832FBF06C09FB7F8948C91CF
:101CA000832B8C939FBFDF91CF910895833071F088
:101CB000843028F48130A1F0823021F514C08630C0
:101CC000B1F08730D1F08430E9F404C08091800015
:101CD0008F7703C0809180008F7D8093800008956E
:101CE00084B58F7702C084B58F7D84BD08958091BF
:101CF000B0008F778093B00008958091B0008F7D01
:101D00008093B0000895FF920F931F93F62E482FF3
:101D100050E0CA0182559F4FFC012491CA018656AA
:101D20009F4FFC0114914A575F4FFA010491002321
:101D3000C9F0222319F0822F0E94560EE02FF0E006
:101D4000EE0FFF1FEE58FF4FA591B4919FB7F89487
:101D5000FF2021F48C911095812302C08C91812B5E
:101D60008C939FBF1F910F91FF9008952F923F92E8
:101D70004F925F926F927F928F929F92AF92BF929B
:101D8000CF92DF92EF92FF920F931F93DF93CF9347
:101D9000CDB7DEB73B014C0119012A016D897E895F
:101DA0008F89988D6A197B098C099D09621A730ABB
:101DB000840A950AA40193010E943F0FE218F308D8
:101DC00004091509A80197010E949F0F2A0D3B1DC8
:101DD0004C1D5D1DB901CA01CF91DF911F910F917B
:101DE000FF90EF90DF90CF90BF90AF909F908F903B
:101DF0007F906F905F904F903F902F900895EF925B
:101E0000FF920F931F937B018C0161157105810572
:101E1000910529F420E030E040E050E00BC00E9442
:101E2000E100A80197010E949F0FAC01CB01DA01EC
:101E30009C01AD01B901CA011F910F91FF90EF9074
:101E40000895EF92FF920F931F937B018C0162170D
:101E500073078407950764F4261B370B480B590B4F
:101E6000CA01B9010E94FF0EE60EF71E081F191FD6
:101E7000B701C8011F910F91FF90EF900895629FE5
:101E8000D001739FF001829FE00DF11D649FE00D72
:101E9000F11D929FF00D839FF00D749FF00D659FD3
:101EA000F00D9927729FB00DE11DF91F639FB00DD2
:101EB000E11DF91FBD01CF0111240895991B79E09F
:101EC00004C0991F961708F0961B881F7A95C9F7CA
:101ED0008095089597FB092E07260AD077FD04D038
:101EE00049D006D000201AF4709561957F4F08956F
:101EF000F6F7909581959F4F0895A1E21A2EAA1B9F
:101F0000BB1BFD010DC0AA1FBB1FEE1FFF1FA217A9
:101F1000B307E407F50720F0A21BB30BE40BF50BA6
:101F2000661F771F881F991F1A9469F7609570952F
:101F3000809590959B01AC01BD01CF01089597FB61
:101F4000092E05260ED057FD04D0D7DF0AD0001C7D
:101F500038F450954095309521953F4F4F4F5F4F46
:101F60000895F6F790958095709561957F4F8F4F06
:101F70009F4F0895AA1BBB1B51E107C0AA1FBB1F9F
:101F8000A617B70710F0A61BB70B881F991F5A9505
:101F9000A9F780959095BC01CD010895EE0FFF1F24
:101FA0000590F491E02D09942F923F924F925F9209
:101FB0006F927F928F929F92AF92BF92CF92DF9259
:101FC000EF92FF920F931F93CF93DF93CDB7DEB7BE
:101FD000CA1BDB0B0FB6F894DEBF0FBECDBF099452
:101FE0002A88398848885F846E847D848C849B84A9
:101FF000AA84B984C884DF80EE80FD800C811B81B7
:10200000AA81B981CE0FD11D0FB6F894DEBF0FBEE5
:10201000CDBFED01089510E0C6ECD0E004C0FE0194
:102020000E94D00F2296C83CD107C9F7F894FFCF81
:102030006D6A7373730042696E6420696E207072FA
:102040006F6772657373005468726F74746C652087
:1020500028537065656429203A2000205961772053
:102060003A2000205069746368203A200020526FA3
:102070006C6C203A200020466C6167203A200020DA
:102080005472696D20596177203A2000205472699A
:102090006D207069746368203A2000205472696D65
:1020A00020526F6C6C203A200020437263203A204B
:1020B00000537461727420526F626F7400436F64D6
:1020C00065426C6F636B2031332E31322050726F5A
:1020D0006A6563740041726475696E6F204E616E4B
:1020E0006F2028333238290050726F6A656374207C
:1020F0004E616D653A20526F626F74426173652E56
:10210000636270004C6F636174696F6E3A20433A8A
:102110002F55736572732F6477696A616E746F2FC0
:10212000446F63756D656E74732F4769744875628B
:102130002F526F626F7442617365006874747073BC
:102140003A2F2F6769746875622E636F6D2F6477FD
:10215000696A616E746F2F526F626F74426173654A
:10216000006477696A616E746F407961686F6F2E81
:10217000636F6D00010000000000000079020000A4
:10218000000033047502271B392824222E3619211A
:1021900029141E122D182E332538191218162A1C30
:1021A0001F372F233410111A35242818252A322CD2
:1021B000142736341C172227173934282B1D182AC8
:1021C00021381026201F00000000D90A7E0B6F0A5C
:0621D000A00A800AC90A02
:00000001FF
